:100000000C94910F0C94CA0F0C94CA0F0C94CA0F45
:100010000C94CA0F0C94CA0F0C94CA0F0C94CA0FFC
:100020000C94CA0F0C94CA0F0C94B9A20C9436A36A
:100030000C94CA0F0C94CA0F0C94CA0F0C94CA0FDC
:100040000C94CA0F0C9474840C94CA0F0C94CA0FAD
:100050000C94CA0F0C945B930C94CA0F0C9418A2C6
:100060000C94CA0F0C94CA0F0C94CA0F0C94CA0FAC
:100070000C94CA0F0C94CA0F0C94CA0F0C94CA0F9C
:100080000C94CA0F0C94CA0F0C94CA0F0C94CA0F8C
:100090000C9482A00C94CA0F084AD73B3BCE016E49
:1000A00084BCBFFDC12F3D6C74319ABD56833DDACF
:1000B0003D00C77F11BED9E4BB4C3E916BAAAABEDE
:1000C000000000803F05A84CCDB2D44EB93836A907
:1000D000020C50B9918688083CA6AAAA2ABE000044
:1000E00000803F004E414E494E495459494E46CD3D
:1000F000CCCC3D0AD7233C17B7D13877CC2B3295DF
:1001000095E6241FB14F0A000020410000C84200BC
:10011000401C4620BCBE4CCA1B0E5AAEC59D744541
:1001200072726F722077726974696E6720746F20C3
:10013000454550524F4D210A002020506C616E6E93
:10014000657242756666657242797465733A20001D
:100150002046726565204D656D6F72793A200020EA
:10016000436F6D70696C65643A204D617920323857
:1001700020323032320A00204C6173742055706492
:10018000617465643A20323032312D31322D32358E
:10019000207C20417574686F723A2073746F6E65AD
:1001A000686970706F40676D61696C2E636F6D0A6E
:1001B000004D61726C696E20322E302E392E330A5A
:1001C0000020536F667477617265205265736574A1
:1001D0000A00205761746368646F67205265736515
:1001E000740A002042726F776E206F75742052651A
:1001F0007365740A002045787465726E616C2052D4
:10020000657365740A00506F77657255700A0073E4
:10021000746172740A005072696E7465722068614C
:100220006C7465642E206B696C6C28292063616C8A
:100230006C6564210A002121204B494C4C206361EC
:100240007573656420627920746F6F206D756368C3
:1002500020696E6163746976652074696D65202D0F
:100260002063757272656E7420636F6D6D616E646C
:100270003A20004D3131322053687574646F776EC7
:10028000004F4646004F4E004572726F723A00654D
:1002900063686F3A0020453A00205A3A0020593AE4
:1002A0000020583A00204500205A002059002058CC
:1002B00000204300583A002054002900202800293B
:1002C000002028002900202800290020280053743D
:1002D00065707065722063757272656E74207661E8
:1002E0006C75657320696E20252028416D70732917
:1002F0003A0A00706F7765726F6666002F2F616330
:1003000074696F6E3A00203B204C6576656C696EAF
:1003100067200020204D3432302053004175746F27
:1003200020426564204C6576656C696E67004265A5
:1003300064204C6576656C696E6720004661696C67
:10034000656420746F20656E61626C65204265642F
:10035000204C6576656C696E670A00426564204CC6
:100360006576656C20436F7272656374696F6E2089
:100370004D61747269783A000A0A426564204C65DE
:1003800076656C20436F7272656374696F6E204D81
:1003900061747269783A002F332E0A0050726F62CE
:1003A000696E6720706F696E74200020284452596E
:1003B00052554E2900473239204175746F204265ED
:1003C00064204C6576656C696E67003F2856296528
:1003D00072626F7365206C6576656C20696D706CF8
:1003E00061757369626C652028302D34292E0A00EE
:1003F0004732384C30005A2050726F62652050618D
:100400007374204265640A005A2050726F6265203E
:10041000506173742042656400204A00205300201C
:10042000204D323035204200416476616E63656450
:100430002028423C6D696E5F7365676D656E745F01
:1004400074696D655F75733E20533C6D696E5F66C0
:10045000656564726174653E20543C6D696E5F74BD
:10046000726176656C5F66656564726174653E2075
:100470004A3C6A756E635F6465763E29003F4A2098
:100480006F7574206F662072616E67652028302E4C
:10049000303120746F20302E33290A002052002082
:1004A000204D323034205000416363656C657261C9
:1004B00074696F6E2028756E6974732F73322920EA
:1004C00028503C7072696E742D616363656C3E20C8
:1004D000523C726574726163742D616363656C3E36
:1004E00020543C74726176656C2D616363656C3E6B
:1004F000290020204D3230332058004D617820668D
:1005000065656472617465732028756E6974732FF4
:1005100073290020204D3230312058004D61782061
:10052000416363656C65726174696F6E2028756ED6
:100530006974732F7332290020440020204D32301B
:1005400030205300202844697361626C6564293A45
:100550000046696C616D656E742073657474696EB4
:1005600067730046523A0020466C6F773A200020AD
:100570004C0020440020490020204D3330312050D1
:1005800000486F74656E64205049440043290A0096
:1005900061626C656420286D696E2074656D7020E1
:1005A0000064697300656E00436F6C642065787445
:1005B000727564657320617265200020204D3932A8
:1005C00020580053746570732070657220756E69D1
:1005D00074006F66660044454255473A00080603BA
:1005E00006FC05F505E705434F4D4D554E49434182
:1005F00054494F4E0044525952554E004552524FA5
:10060000525300494E464F004543484F004E6F201D
:100610004D6F76652E0020204D61783A2000200035
:1006200020204D696E3A2000203B200020204D32D2
:100630003131205300536F667420656E6473746F9C
:100640007073005072696E7472626F742053696DBA
:10065000706C65204D616B65722031343035204FF0
:1006600046462E00454550524F4D204F4B0A002024
:10067000204D393030204B004C696E65617220414D
:100680006476616E636500416476616E6365204BDC
:100690003D002E0A002028302D31302900207661BF
:1006A0006C7565206F7574206F662072616E67656A
:1006B00000627573793A2070617573656420666FA6
:1006C0007220696E7075740A00627573793A2070D1
:1006D000617573656420666F7220757365720A00B8
:1006E000627573793A2070726F63657373696E67B0
:1006F0000A0020496E76616C6964206578747275B1
:10070000646572200020286D6D29003B2000546F25
:100710006F206661722066726F6D20726566657209
:10072000656E636520706F696E740A0020204D321B
:100730003036205800486F6D65206F6666736574AB
:1007400000FF01FF000000000000C84200000000A0
:100750004F666673657473204170706C69656400E0
:100760004D313133205300434F4E4649475F455882
:10077000504F5254004D4541545041434B00434F5C
:100780004F4C45525F54454D50455241545552458A
:10079000004348414D4245525F54454D50455241FA
:1007A0005455524500424142595354455050494EC8
:1007B000470041524353004D4F54494F4E5F4D4FF8
:1007C00044455300544845524D414C5F50524F549C
:1007D000454354494F4E00455854454E4445445FA7
:1007E0004D323000435553544F4D5F4649524D579B
:1007F0004152455F55504C4F4144004C464E5F5767
:1008000052495445004C4F4E475F46494C454E4176
:100810004D45004155544F5245504F52545F53443B
:100820005F5354415455530053445F575249544504
:1008300000524550454154005344434152440050F6
:10084000524F4D50545F535550504F525400484FE3
:1008500053545F414354494F4E5F434F4D4D414EBA
:10086000445300454D455247454E43595F50415210
:1008700053455200434153455F4C494748545F42FA
:1008800052494748544E45535300544F47474C45EF
:100890005F4C494748545300534F465457415245C3
:1008A0005F504F574552004255494C445F504552A6
:1008B00043454E54004C4556454C494E475F4441D4
:1008C0005441005A5F50524F42450052554E4F55C9
:1008D00054004155544F4C4556454C005052494EDA
:1008E000545F4A4F420050524F47524553530041C4
:1008F00055544F5245504F52545F54454D5000414E
:1009000055544F5245504F52545F504F5300564F1D
:100910004C554D455452494300454550524F4D00AA
:1009200042494E4152595F46494C455F5452414EEF
:10093000534645520053455249414C5F584F4E5F14
:10094000584F4646004649524D574152455F4E4129
:100950004D453A4D61726C696E20322E302E392E23
:100960003320284D61792032382032303232203223
:10097000313A32333A35342920534F555243455F8B
:10098000434F44455F55524C3A6769746875622E0F
:10099000636F6D2F4D61726C696E4669726D776120
:1009A00072652F4D61726C696E2050524F544F43E7
:1009B0004F4C5F56455253494F4E3A312E30204DE1
:1009C000414348494E455F545950453A5072696E0B
:1009D0007472626F742053696D706C65204D616B29
:1009E00065722031343035204558545255444552B3
:1009F0005F434F554E543A3120555549443A3538A6
:100A00006334326439302D343930382D3432623227
:100A10002D383837612D6266646631633133613356
:100A200039300A004361703A002F2F0047322F47B8
:100A3000332062616420706172616D6574657273E8
:100A40000A00536C6565702E2E2E0050726F626521
:100A5000204F6666736574205A0050726F6265207D
:100A60004F6666736574205A00220A00556E6B6EDD
:100A70006F776E20636F6D6D616E643A2022002087
:100A80005A3A200020593A200042656420583A2002
:100A900000203B0020204D3835312058005A2D5081
:100AA000726F6265204F666673657400290A0020C4
:100AB000746F20003F5A206F7574206F662072613A
:100AC0006E6765202800290A0020746F20003F59B6
:100AD000206F7574206F662072616E676520282D07
:100AE00000290A0020746F20003F58206F75742081
:100AF0006F662072616E676520282D005072696EE6
:100B00007465722073746F707065642064756520FD
:100B1000746F206572726F72732E2046697820742C
:100B20006865206572726F7220616E6420757365EE
:100B3000204D39393920746F207265737461727475
:100B40002E202854656D7065726174757265206918
:100B5000732072657365742E205365742069742048
:100B600061667465722072657374617274696E6710
:100B7000290A004E6F20436865636B73756D20779B
:100B8000697468206C696E65206E756D6265722C83
:100B9000204C617374204C696E653A20006368656F
:100BA000636B73756D206D69736D617463682C2060
:100BB0004C617374204C696E653A20004C696E6517
:100BC000204E756D626572206973206E6F74204CC3
:100BD000617374204C696E65204E756D6265722B71
:100BE000312C204C617374204C696E653A20004DA5
:100BF0003131300053657269616C207374617475B2
:100C000073206D69736D617463680A006F6B0A000D
:100C1000526573656E643A20006F6B0053544F50F9
:100C20005045442E20005072696E742074696D65C1
:100C30003A20002569730025696D20256973002518
:100C400069682025696D2025697300256964202560
:100C500069682025696D202569730025697920253B
:100C60006964202569682025696D20256973006FF6
:100C70006B00504944204175746F74756E65206631
:100C800061696C65642120426164206865617465F6
:100C9000722069640A00504944204175746F74756C
:100CA0006E65007A5F6D696E00795F6D61780078BE
:100CB0005F6D696E005265706F7274696E67206552
:100CC0006E6473746F70207374617475730A006F4F
:100CD00070656E00545249474745524544003A20DA
:100CE00000205A3A0020593A0020583A00656E64B4
:100CF00073746F7073206869743A2000486F6D696F
:100D00006E67204661696C6564005761726E696E3A
:100D1000673A20486F6D696E672042756D70204498
:100D2000697669736F72203C20310A000202042048
:100D3000746F6F206C6F6E6720657874727573695D
:100D40006F6E2070726576656E7465640A0020634C
:100D50006F6C6420657874727573696F6E20707241
:100D60006576656E7465640A000000A0400000A00E
:100D700040000000400000C8420000C8420000C817
:100D8000420000C8420000C8420000C84200000003
:100D9000000000000000000000486F6D6520257312
:100DA0002573257320466972737400DB0FC93F45B4
:100DB000BCDA3F8FB30240FCF0274056946140FEFE
:100DC0004B9B4084A5D840E0231841346A5641E843
:100DD00059974164DBD5416E271742B4B75542CECF
:100DE0001A9742C8AED542B5885A43D40684BFA6E6
:100DF0005FA7BF7443E0BF10B11AC01C2C58C0E8F5
:100E0000F697C0B849D6C04E4E17C124D355C180FD
:100E10002497C1A0B5D5C1121A17C244AE55C278E5
:100E20001797C26CACD5C267885AC320746F6F2005
:100E30006C6F6E6720657874727573696F6E207061
:100E4000726576656E7465640A0020636F6C642059
:100E5000657874727573696F6E2070726576656EF1
:100E60007465640A000000000100000001000080B9
:100E700000555555000000400033333300AAAA2A1C
:100E8000004992240000002000C7711C00999919A4
:100E900000D1451700555515003BB11300244912E8
:100EA0000011111100000010000F0F0F00E3380EA9
:100EB0000043790D00CCCC0C00C3300C00E8A20B31
:100EC0000064210B00AAAA0A00703D0A009DD809FF
:100ED00000427B090092240900DCD30800888808BE
:100EE000001042080000000800F0C10700878707D3
:100EF0000075500700711C07003EEB0600A1BC0600
:100F0000006990060066660600703E0600611806DD
:100F10000017F4050074D105005BB00500B2900520
:100F200000627205005555050078390500B81E05A8
:100F300000050505004EEC040087D40400A1BD04A3
:100F40000090A7040049920400C17D0400EE6904EA
:100F500000C7560400444404005C32040008210425
:100F60000041100400000004003FF00300F8E0031B
:100F70000026D20300C3C30300CCB503003AA80384
:100F8000000A9B0300388E0300C08103009F750395
:100F900000D0690300505E03001D53030034480372
:100FA00000913D03003333030016290300381F036B
:100FB0000097150300300C0300030303000BFA0233
:100FC0000049F10200BAE802005CE002002DD802FC
:100FD000002DD0020059C80200B0C0020031B90291
:100FE00000DAB10200AAAA0200A0A30200BC9C027F
:100FF00000FA9502005C8F0200DF88020082820204
:1010000000457C02002776020027700200436A0236
:10101000007C640200D05E02003F590200C8530207
:1010200000FFFDFCFAF8F6F4F2F0EEECEAE9E7E591
:10103000E3E1E0DEDCDAD9D7D5D4D2D0CFCDCBCA4C
:10104000C8C7C5C3C2C0BFBDBCBAB9B7B6B4B3B2D6
:10105000B0AFADACAAA9A8A6A5A4A2A1A09E9D9C34
:101060009A99989795949392908F8E8D8B8A898870
:10107000878684838281807F7E7D7B7A797877768C
:101080007574737271706F6E6D6C6B6A6968676688
:101090006564636261605F5E5D5C5B5A5958585776
:1010A00056555453525150504F4E4D4C4B4A4A494D
:1010B00048474646454443424241403F3E3E3D3C10
:1010C0003B3B3A39383837363535343332323130C4
:1010D000302F2E2E2D2C2B2B2A2929282727262569
:1010E0002524232322212120201F1E1E1D1C1C1B02
:1010F0001B1A19191818171616151514131312128E
:101100001111100F0F0E0E0D0D0C0C0B0A0A090910
:101110000808070706060505040403030202010088
:101120000050726F62696E67204661696C65640A7F
:1011300000205A3A200020593A2000426564205885
:101140003A200050726F62696E67204661696C6573
:10115000640020204D3134392043203B20556E69F6
:10116000747320696E2043656C736975730A00544B
:10117000656D706572617475726520556E69747302
:10118000002020473231203B004C696E656172209F
:10119000556E6974730048617264636F646564209E
:1011A00044656661756C742053657474696E677309
:1011B000204C6F6164656400290A002062797465BF
:1011C000733B2063726320002073746F7265642028
:1011D00073657474696E677320726574726965767D
:1011E0006564202800202863616C63756C617465F8
:1011F0006429210A0020213D2000454550524F4DD1
:1012000020435243206D69736D61746368202D2003
:101210002873746F7265642920002053697A653AD7
:101220002000496E6465783A2000204D61726C6937
:101230006E3D563836290A00454550524F4D2076AE
:10124000657273696F6E206D69736D617463682078
:1012500028454550524F4D3D00290A0020627974BF
:1012600065733B20637263200053657474696E6715
:10127000732053746F726564202800454550524FA7
:101280004D206461746173697A65206572726F7252
:101290002E0A0000001643000016430000E0400044
:1012A0000020420000A0420000A0420080FC440058
:1012B00000BD42D0070000D007000064000000100D
:1012C0002700004E6F20454550524F4D2E0A0053C7
:1012D000657474696E67732053746F72656400205F
:1012E000436F756E7420583A00232C0000B822001A
:1012F00000561800003A0F0000B8080000B10400C2
:1013000000710200003E01000024F4D43050C38E6E
:1013100020C2A24017828B7011127A910D816CD974
:101320000AA861E108C7586607615143061E4B5D74
:1013300005C145A7041A411104093D9803713931CB
:10134000034036DB0265339102D4305402802E1DF7
:1013500002632CEE01752AC501B028A00110278177
:10136000018F2564012B244B01E0223401AC211FA5
:10137000018D200D01801FFC00841EED00971DDFF4
:1013800000B81CD200E61BC600201BBC00641AB2C9
:1013900000B219A8000A19A0006A189900D1179183
:1013A0000040178B00B516840031167E00B3157906
:1013B000003A157300C7146F0058146A00EE1366E4
:1013C000008813630025135E00C7125B006C125780
:1013D0000015125400C111510070114F0021114B22
:1013E00000D61049008D10470046104400021042FC
:1013F00000C00F4000800F3E00420F3C00060F3B34
:1014000000CB0E3800930E37005C0E3500270E34EB
:1014100000F30D3200C10D3100900D3000600D2E33
:1014200000320D2D00050D2C00D90C2B00AE0C291F
:1014300000850C29005C0C2700350C27000E0C26BB
:1014400000E80B2400C40B2400A00B23007D0B2319
:10145000005A0B2100390B2100180B2000F80A1F3D
:1014600000D90A1E00BB0A1E009D0A1D00800A1D2D
:1014700000630A1C00470A1B002C0A1B00110A1AF1
:1014800000F7091A00DD091900C4091900AB091990
:1014900000920917007B091800630917004C091610
:1014A0000036091600200916000A091500F508156E
:1014B00000E0081400CC081400B8081400A40814B4
:1014C00000900813007D0812006B081300580812E2
:1014D00000460812003408110023081100120811F8
:1014E0000001081100F0071000E0071000D00710FD
:1014F00000C0071000B0070F00A107100091070EF1
:101500000083070F0074070F0065070E0057070ED2
:101510000049070E003B070D002E070E0020070DA7
:101520000013070D0006070D00F9060C00ED060D6F
:1015300000E0060C00D4060C00C8060C00BC060C2B
:1015400000B0060C00A4060B0099060C008D060BDB
:101550000082060B0077060B006C060B0061060A82
:101560000057060B004C060A0042060A0038060A1D
:10157000002E060A0024060A001A060A00100609B0
:101580000007060A00FD050900F4050900EB05093E
:1015900000E2050900D9050900D0050900C70509C1
:1015A00000BE050900B5050800AD050800A5050940
:1015B000009C050800940508008C050800840508B7
:1015C000007C050800740508006C05070065050827
:1015D000005D050700560508004E05070047050792
:1015E000004005080038050700310507002A0507F7
:1015F00000230507001C050600160507000F050758
:10160000000805060002050700FB040600F50407B4
:1016100000EE040600E8040600E2040700DB04060E
:1016200000D5040600CF040600C9040600C3040662
:1016300000BD040600B7040600B1040500AC0406B2
:1016400000A6040600A00405009B040600950405FE
:1016500000900406008A0405008504050080040645
:10166000007A04050075040500700405006B04058C
:101670000066040500610405005C040500570405CC
:1016800000520405004D040500480405004304050C
:10169000003E0404003A040500350405003004044B
:1016A000002C04050027040400230405001E040484
:1016B000001A04040016040500110404000D0404BB
:1016C00000090405000404040000040400FC0304F1
:1016D00000F8030400F4030400F0030400EC030426
:1016E00000E8030400E4030400E0030400DC030456
:1016F00000D8030400D4030400D0030400CC030486
:1017000000C8030300C503030024F404D9201BC44C
:101710000C5C0E9804C4095F0265077101F405F9B9
:1017200000FB04B30048048700C103690058035557
:101730000003034500BE023A008402310053022A2E
:10174000002902250004022000E4011C00C8011940
:1017500000AF0117009801140084011300710110FB
:10176000006101100051010E0043010D0036010B14
:10177000002B010B0020010B00150109000C0109D1
:101780000003010800FB000800F3000800EB00075D
:1017900000E4000600DE000600D8000600D20006C5
:1017A00000CC000500C7000500C2000500BD000414
:1017B00000B9000400B5000400B1000400AD00044D
:1017C00000A9000400A5000300A20003009F00047C
:1017D000009B0003009800030095000200930003A3
:1017E00000900003008D0002008B000300880002BF
:1017F000008600020084000300810002007F0002D6
:10180000007D0002007B00020079000200770001E9
:1018100000760002007400020072000100710002F4
:10182000006F0002006D0001006C0002006A000100
:101830000069000200670001006600010065000108
:10184000006400020062000100610001006000010C
:10185000005F0002005D0001005C0001005B000110
:10186000005A000100590001005800010057000112
:101870000056000100550001005400010053000013
:10188000005300010052000100510001005000010E
:10189000004F0001004E0000004E0001004D00010D
:1018A000004C0001004B0000004B0001004A000109
:1018B0000049000100480000004800010047000105
:1018C0000046000000460001004500000045000100
:1018D00000440001004300000043000100420000FA
:1018E00000420001004100000041000100400001F1
:1018F000003F0000003F0001003E0000003E0001EC
:10190000003D0000003D0001003C0000003C0000E4
:10191000003C0001003B0000003B0001003A0000D9
:10192000003A0001003900000039000100380000D1
:1019300000380000003800010037000000370001C7
:1019400000360000003600000036000100350000BF
:1019500000350000003500010034000000340000B4
:1019600000340001003300000033000000330001A8
:10197000003200000032000000320001003100009F
:101980000031000000310001003000000030000094
:1019900000300001002F0000002F0000002F000089
:1019A000002F0001002E0000002E0000002E00017C
:1019B000002D0000002D0000002D0000002D000172
:1019C000002C0000002C0000002C0000002C000166
:1019D000002B0000002B0000002B0000002B00015A
:1019E000002A0000002A0000002A0000002A00014E
:1019F0000029000000290000002900000029000043
:101A00000029000100280000002800000028000034
:101A10000028000000280001002700000027000027
:101A2000002700000027000000270001002600001A
:101A3000002600000026000000260000002600010D
:101A40000025000000250000002500000025000002
:101A500000250000002500010024000000240000F3
:101A600000240000002400000024000100230000E6
:101A700000230000002300000023000000230000DA
:101A800000230000002300010022000000220000CB
:101A900000220000002200000022000000220001BD
:101AA00000210000002100000021000000210000B2
:101AB00000210000002100000021000100200000A2
:101AC0000020000000200000002000000020000096
:101AD000002000000020000000200001001F000086
:101AE000001F0000001F0000001F0000001F00007A
:101AF000001F0000001F0001001E0000001E00006B
:101B0000001E0000001E00000020573A0020403A4E
:101B100000202F00202D20496E76616C69642065BD
:101B200078747275646572206E756D6265722021BD
:101B30000A004D494E54454D5020747269676765DF
:101B4000726564004D415854454D50207472696768
:101B500067657265640045002C2073797374656D48
:101B60002073746F707065642120486561746572BC
:101B70005F49443A2000453100004B6420004B6926
:101B800020004B702000504944204175746F7475DB
:101B90006E652066696E697368656421205075748E
:101BA00020746865206C617374204B702C204B6925
:101BB00020616E64204B6420636F6E7374616E7479
:101BC000732066726F6D2062656C6F7720696E742A
:101BD0006F20436F6E66696775726174696F6E2EF0
:101BE000680A00504944204175746F74756E652011
:101BF0006661696C6564212074696D656F75740A2E
:101C000000504944204175746F74756E652066619B
:101C1000696C6564212054656D70657261747572BC
:101C20006520746F6F20686967680A00204B643A0A
:101C30002000204B693A2000204B703A20002043BE
:101C40006C617373696320504944200A00204E6F11
:101C5000206F76657273686F6F740A002054753A4E
:101C60002000204B753A2000206D61783A2000203A
:101C70006D696E3A200020643A2000206269617329
:101C80003A2000504944204175746F74756E652088
:101C900073746172740A00504944204175746F7402
:101CA000756E65206661696C6564212054656D7090
:101CB0006572617475726520746F6F2068696768FA
:101CC0000A0023646566696E652044454641554CAB
:101CD000545F0048656174696E67206661696C6570
:101CE0006400546865726D616C2052756E61776135
:101CF000790070012C0190012701B0012201C0017F
:101D00001D01F00118011002130130020E016002E2
:101D1000090190020401C002FF000003FA00400321
:101D2000F5008003F000D003EB002004E60070040F
:101D3000E100E004DC004005D700C005D200400609
:101D4000CD00D006C8008007C3003008BE00F008F0
:101D5000B900C009B400B00AAF00B00BAA00D00CA3
:101D6000A500000EA000500F9B00C010960050125E
:101D7000910000148C00C0158700B0178200B019C4
:101D80007D00D01B7800001E730040206E00902262
:101D90006900F024640040275F0090295A00E02B7E
:101DA0005500102E500020304B0010324600E0331A
:101DB000410090353C001037370070383200A039B0
:101DC0002D00B03A2800A03B2300603C1E00103DCF
:101DD0001900903D1400103E0F00703E0A00C03EF6
:101DE0000500003F0000403FFBFF803FF6FFC03F83
:101DF000F1FF48656174696E672E2E2E0045727280
:101E00003A204D494E54454D50004572723A204D8E
:101E1000415854454D5000544845524D414C205274
:101E2000554E415741590048656174696E672046B7
:101E300061696C656400496E76616C6964206578DF
:101E40007472756465720A0000010000F91E1200C8
:101E5000020000B61E4300030000B21E0401030985
:101E600004981E1802030904801E16030309047255
:101E70001E0C0C033100320033003400350000002A
:101E80001603550053004200200053006500720005
:101E9000690061006C0000001803540065006500D3
:101EA0006E00730079006400750069006E006F00B9
:101EB00000000403090409024300020100C03209C2
:101EC00004000001020201000524001001052401A4
:101ED0000001042402060524060001070582030808
:101EE000004009040100020A000000070503024047
:101EF00000000705840240000012010002020000F9
:101F000020C01683047202010203010001C1020114
:101F1000803601813600E90F16745079B09E9F9F7C
:101F2000A7A611241FBECFEFD0E2DEBFCDBF84B77E
:101F30008093090F14BE0FB6F894A89580916000A5
:101F4000886180936000109260000FBE12E0A0E0F4
:101F5000B1E0ECE4F4E601E00BBF02C007900D92A3
:101F6000A437B107D9F72FE0A4E7B2E001C01D9272
:101F7000A930B207E1F71FE0C1E9DFE004C0219713
:101F8000FE010E941BA7CB38D107C9F70E94A5A16B
:101F90000C9424B20C9400000FC3CF93DF9300D0B5
:101FA000CDB7DEB72091EF0E3091F00ECE01019645
:101FB0002115310559F489509F409A83898389817D
:101FC0009A810F900F90DF91CF910895821B930B10
:101FD000F4CF8DEF9EE09093750280937402089584
:101FE00081E0089581E008955F926F927F928F92D1
:101FF0009F92AF92BF92CF92DF92EF92FF920F9398
:102000001F93CF93DF931F92CDB7DEB77C013901C9
:102010008B015B01A40EB51ED12CC12CA016B106FC
:1020200009F44FC0F70180809180F80151908F0131
:102030005982C4010E940EB25816A1F1652DC40147
:102040000E9416B2FFEFCF1ADF0AC6018F779927D9
:10205000892B11F162E070E080E090E00E9458A2CC
:10206000C4010E940EB299818917E1F0D5D58FE1A4
:1020700091E0C5D581E00F90DF91CF911F910F9135
:10208000FF90EF90DF90CF90BF90AF909F908F9098
:102090007F906F905F90089562E070E080E090E044
:1020A000D7D6DECF41E050E0BE016F5F7F4FC30166
:1020B0000E943949F7018081918101969183808343
:1020C000ADCF80E0D8CF8F929F92AF92BF92CF9248
:1020D000DF92EF92FF920F93CF93DF931F92CDB7D2
:1020E000DEB75C017B0149016B01C40ED51EF50111
:1020F000808191810E940EB28983002311F0F70143
:10210000808341E050E0BE016F5F7F4FC4010E94B9
:102110003949F50180819181019691838083FFEF98
:10212000EF1AFF0AEC14FD0411F780E00F90DF9125
:10213000CF910F91FF90EF90DF90CF90BF90AF9035
:102140009F908F900895CF93DF93EC016C3160F4F2
:10215000E62FF0E0E85FFD4F80818330F1F150F42D
:10216000813089F08230D9F082E1FE0111928A95A6
:10217000E9F711C0853009F452C008F44EC086302A
:1021800099F780E00DC082E1E7E7F1E0DE01019020
:102190000D928A95E1F7CE01DF91CF91089581E00C
:1021A00020EB30E03983288321EB30E03B832A8326
:1021B0001D821C8223EB30E03F832E8324EB30E032
:1021C000398728871B861A861D861C8692E09E8783
:1021D0008F8781E0888B198ADECF81E08F5F20E9CD
:1021E00030E03983288321E930E03B832A8322E9E8
:1021F00030E03D832C8328E930E03F832E832AE9B9
:1022000030E0398728872CE930E03B872A8726E9A8
:1022100030E03D872C8793E0DACF80E0DFCF80E0AD
:10222000DECF2F923F924F925F926F927F928F926A
:102230009F92AF92BF92CF92DF92EF92FF920F9355
:102240001F93CF93DF93CDB7DEB7C354D1090FB639
:10225000F894DEBF0FBECDBF8B01682FCE01019673
:1022600072DF8A89811159C18989882309F455C18E
:102270008F848CA6282D223009F069C11BA6898085
:102280009A809BAA8AAAAB80BC80B9AAA8AA011589
:10229000110509F489C18EE0E9E8F1E0DE01539609
:1022A00001900D928A95E1F77DEF272E312C2CA518
:1022B000223009F04FC131E03AAF43E04BAFDE01CD
:1022C0005396B9AFA8AFB1E0BAA7E1E0E9A71FA65E
:1022D0002FEF30E03EA72DA72801712C612CA8AD6F
:1022E000B9AD8D909D90B9AFA8AF9AA289A22CA547
:1022F000223009F434C1A4014032510509F4DFC091
:102300004038510509F4DBC0089D9001099D300D4E
:10231000189D300D112450E040E060E074E284EF3D
:1023200090E00E94FFA6C901019736952795009776
:1023300009F41AC15FEF5DA38BA48EA2ADA0BEA06D
:102340008A159B0510F49EA38DA32115310509F470
:1023500010C15FEF5FA38BA488A6AFA0B8A42A1515
:102360003B0510F438A72FA3C8010215130508F484
:10237000C10198012016310608F49101821B930BCC
:102380004C01B12CA12C8CAA9DAAAEAABFAA8DA1EA
:102390009EA10196A9A0BAA08A9D90018B9D300DA7
:1023A0009A9D300D112450E040E060E074E284EF2B
:1023B00090E00E94FFA669017A0149015A01C41404
:1023C000D504E604F70410F453014201D701C60115
:1023D0004C145D046E047F0410F4D301C201A50106
:1023E0009401281B390B4A0B5B0B2CAF3DAF4EAF52
:1023F0005FAF89A19AA1880F991F8FA098A4889D8B
:102400009001899D300D989D300D112450E040E0E1
:1024100060E074E284EF90E00E94FFA624962CAF67
:102420003DAF4EAF5FAF24972415350546055705E0
:1024300030F424964CAE5DAE6EAE7FAE249729A3E9
:102440003AA34BA35CA3421653066406750620F418
:1024500049A25AA26BA27CA224968CAD9DADAEADD2
:10246000BFAD249789A09AA0ABA0BCA088199909F8
:10247000AA09BB0989A39AA3ABA3BCA38CA89DA856
:10248000AEA8BFA88CAD9DADAEADBFAD881599050A
:10249000AA05BB0508F070C089A09AA0ABA0BCA09B
:1024A00088169906AA06BB0608F466C016019BACFE
:1024B00099A6AAA4AFA6CDA0DEA0DEA6CDA62AA589
:1024C0002F5F2AA7283009F00ACFAAA9BBA98C91AF
:1024D0008C7F99A59370892B8C93E8A9F9A9208109
:1024E00089A4882D90E0959587959595879543E0EB
:1024F000880F991F4A95E1F7277E822B8083808180
:10250000887F2FA4282A20822CA5223031F0ED8547
:10251000FE858DA49EA491828082CD5BDF4F0FB695
:10252000F894DEBF0FBECDBFDF91CF911F910F9109
:10253000FF90EF90DF90CF90BF90AF909F908F90E3
:102540007F906F905F904F903F902F9008953FEF56
:102550003BA795CE5AE05AAF8EE08BAFB0CE2FEFAF
:102560003BA58FEF932FE6CE41E050E05EA34DA355
:10257000ECCE21E030E0F6CE8CA89DA8AEA8BFA896
:10258000C9A0DAA0EBA0FCA0C814D904EA04FB049B
:1025900008F095CF1901DAACD9A6EAA4EFA68FA06E
:1025A00098A49EA68DA68BCF31E039A71FA64FEF2A
:1025B00050E05EA74DA789CF68EE73E080E131DE81
:1025C00068EE73E088E12DCE88E198E20FB6F894CA
:1025D000A895809360000FBE9093600008950895C1
:1025E00008950C94E849C82F89EE93E0019739F0DB
:1025F00000C00000EEE5F9E03197F0F7F7CFF8946E
:1026000089EE93E0019739F000C00000E6EEF3E0B8
:102610003197F0F7F7CF0E941693CC2321F00E9458
:10262000F583A895FECF0E94ED83FBCFDC018D9151
:102630009C91DC01ED91FC910190F081E02D0994D9
:10264000EC01142F0E941693209739F0E5D2CE01A9
:10265000D6D26AE084E792E0E9DFE1D286E192E057
:10266000CED233D7812FBFDFCF92DF92EF92FF928E
:102670000F931F93CF93DF93C82F0E9430460FB65E
:10268000F894C090F20ED090F30EE090F40EF0901B
:10269000F50E0FBECC2341F0C0929602D092970265
:1026A000E0929802F09299028091920290919302A6
:1026B000A0919402B09195020097A105B10581F116
:1026C0004091960250919702609198027091990200
:1026D000840F951FA61FB71FA7019601281B390B52
:1026E0004A0B5B0BDA01C901B7FD1AC098D2009101
:1026F000C0021091C10286E392E081D2E8016991A3
:10270000662321F084E792E091DFF9CF6AE084E765
:1027100092E08CDF40E070E060E090E080E090DFED
:1027200080910C0190910D01A0910E01B0910F01CB
:102730000097A105B10571F03091520620914F0626
:10274000321791F1C0929602D0929702E0929802CD
:10275000F09299028091760290917702A09178028E
:10276000B0917902A7019601281B390B4A0B5B0B2C
:10277000DA01C901B7FD0FC00E94D25F34E6C30E73
:10278000D11CE11CF11CC0927602D0927702E0923B
:102790007802F0927902DF91CF911F910F91FF9013
:1027A000EF90DF90CF900895C1111DC00FB6F8943F
:1027B0004091F20E5091F30E6091F40E7091F50E6F
:1027C0000FBE0091960210919702209198023091CD
:1027D0009902800F911FA21FB31F481B590B6A0B50
:1027E0007B0B77FF03C010927A02B4CF80917A02FC
:1027F0008111B0CF81E080937A0280E00E94B6839D
:1028000081E00E94B68382E00E94B6830E94ED833D
:10281000A1CFCF92DF92EF92FF9226DF0E94A8967F
:1028200080917B02882309F43EC00E949B318091F5
:102830009002811138C02091110D2223A1F10FB611
:10284000F894C090F20ED090F30EE090F40EF09059
:10285000F50E0FBE80910D0D90910E0DA0910F0DF4
:10286000B091100DB701A601481B590B6A0B7B0BE9
:10287000DB01CA01B7FD17C030E0A8EEB3E00E944B
:1028800036A7C60ED71EE81EF91EC0920D0DD092B7
:102890000E0DE0920F0DF092100DFF90EF90DF9073
:1028A000CF900C943D98FF90EF90DF90CF900895DB
:1028B00080E0AFDF0E941E440E94EC4EF9CF8F9261
:1028C0009F92AF92BF92EF92FF920F931F93CF937D
:1028D000DF93CDB7DEB7A0970FB6F894DEBF0FBE7B
:1028E000CDBF7C014115510561057105A1F100E0E5
:1028F0004901330FAA08BB08CB01BA01A501940115
:102900000E94DDA6942F852F11E0100FE1E0F0E08A
:10291000EC0FFD1FE00FF11D07FDFA956083A90183
:10292000692F782F012F411551056105710521F798
:10293000115018F1E1E0F0E0EC0FFD1FE10FF11D87
:1029400017FDFA95608187E36A3008F480E3680F29
:10295000C7016CDEEDCF60E3A0960FB6F894DEBF42
:102960000FBECDBFDF91CF911F910F91FF90EF90E0
:10297000BF90AF909F908F9059CEA0960FB6F894CD
:10298000DEBF0FBECDBFDF91CF911F910F91FF90A2
:10299000EF90BF90AF909F908F900895CF92DF926D
:1029A000EF92FF920F931F93CF93DF93EC016A0195
:1029B0007B0189012A30310561F4F7FE0AC0F094E9
:1029C000E094D094C094C11CD11CE11CF11C6DE2B8
:1029D0002DDE9801B701A601CE01DF91CF911F91A5
:1029E0000F91FF90EF90DF90CF9069CFCF92DF9261
:1029F000EF92FF92CF93DF93C091090F14BE40E98D
:102A000050ED63E070E080917402909175020E9435
:102A100036A60FB6F894C090F20ED090F30EE09068
:102A2000F40EF090F50E0FBE88EEC80E83E0D81EAF
:102A3000E11CF11C80917402909175020E949CA689
:102A4000811111C00FB6F8948091F20E9091F30E9F
:102A5000A091F40EB091F50E0FBE8C199D09AE0930
:102A6000BF09B7FDE7CF8FE092E0C9D06AE070E020
:102A700080E090E00E9458A280E885BF85BF8CDA94
:102A8000AFDDC0FF03C086E092E0B9D0C1FF03C054
:102A900085EF91E0B4D0C2FF03C083EE91E0AFD0E8
:102AA000C3FF03C082ED91E0AAD0C5FF03C081EC53
:102AB00091E0A5D081EB91E0A2D0AED087E791E084
:102AC0009ED0AAD08FE591E09AD0A6D066DAEC012C
:102AD00080E591E094D0AE01DD0F660B770B2AE024
:102AE00030E084E792E05ADF89E391E088D02AE081
:102AF00030E040E256E060E070E084E792E0DFDE44
:102B00006AE084E792E092DD6ADD0E9435498091B7
:102B10007C02811107C00E948B83882319F081E019
:102B200080937C0220911D0530911E0540911F0568
:102B300050912005609134017091350180913601EA
:102B4000909137010E9450A7609334017093350132
:102B50008093360190933701209121053091220511
:102B600040912305509124056091380170913901FD
:102B700080913A0190913B010E9450A760933801E7
:102B80007093390180933A0190933B012091250580
:102B900030912605409127055091280560913C0110
:102BA00070913D0180913E0190913F010E9450A79C
:102BB00060933C0170933D0180933E0190933F01EF
:102BC0000E94544F82E39EE00E94D7940E94924953
:102BD0000E94294E0E94528780E00E94344E74D396
:102BE000F3DC83E080937B02DF91CF91FF90EF9045
:102BF000DF90CF900895682F84E792E017CDCF93B0
:102C0000DF93EC01FE0184912196882311F0F3DF1C
:102C1000F9CFDF91CF9108958FE892E0F0CF88E867
:102C200092E0EDCF811103C081E892E0E8CF85E822
:102C300092E0FCCFF7DF8AE0DECF8F929F92AF92D7
:102C4000BF92CF92DF92EF92FF920F931F93CF9399
:102C50008C016A017B01B22E20E030E0A901CB019A
:102C6000B6010E9429A887FF07C06DE2C801DEDC1B
:102C7000F7FAF094F7F8F094C0E060E070E080E0DC
:102C80009FE3CB1541F02DEC3CEC4CEC5DE30E9456
:102C900067AACF5FF6CF9B01AC01C701B6010E94C6
:102CA00050A76B017C010E949DA84B015C012AE0AA
:102CB00030E0BC01A401C80102DECC2391F1C501C2
:102CC000B4010E94C9A89B01AC01C701B6010E94D2
:102CD0004FA76B017C016EE2C801A8DCC15008F16E
:102CE00020E030E040E251E4C701B6010E9467AA4B
:102CF0006B017C010E949DA84B015C012AE030E041
:102D0000BC01A401C801DBDDC501B4010E94C9A852
:102D10009B01AC01C701B6010E944FA76B017C016A
:102D2000DDCFCF911F910F91FF90EF90DF90CF906B
:102D3000BF90AF909F908F900895AB01BC0122E0AF
:102D400084E792E07ACFCF92DF92EF92FF921F93C7
:102D5000CF93DF93EC01162FC880D980EA80FB80E7
:102D600020E030E0A901C701B6010E9429A8811125
:102D700013C080E2113019F0123011F48BE23BDF06
:102D8000688179818A819B81DF91CF911F91FF902A
:102D9000EF90DF90CF90D1CF20E030E0A901C701C4
:102DA000B6010E942CAA18164CF3EACF8F929F927C
:102DB000AF92BF92CF92DF92EF92FF920F931F9349
:102DC000CF93DF936C017B01EA01C901009709F001
:102DD00016DFF60180809180A280B3808EEA92E0B7
:102DE0000EDFC501B401A9DFF701C080D180E28008
:102DF000F3808BEA92E003DFC701B6019EDFC88053
:102E0000D980EA80FB8088EA92E0F9DEC701B6014A
:102E100094DF0115110571F0C801DF91CF911F9169
:102E20000F91FF90EF90DF90CF90BF90AF909F9069
:102E30008F90E5CE8AE0DF91CF911F910F91FF90A7
:102E4000EF90DF90CF90BF90AF909F908F90D3CEB8
:102E5000CF92DF92EF92FF926B017C0183E3C81661
:102E6000D104E104F10470F082E3C81AD108E1084A
:102E7000F10862E370E080E090E00E9458A20E94B6
:102E8000A896ECCFC701B6010E9458A2FF90EF9020
:102E9000DF90CF900C94A896CF93DF93C0918002DF
:102EA000D0918102209799F061E01C161D060CF06C
:102EB00060E00E946E9080918002909181021C16C9
:102EC0001D0644F401979093810280938002DF9164
:102ED000CF9108950196F7CFCF93DF93EB0191E067
:102EE00001C0990F8A95EAF7892F0E9489538111B1
:102EF00014C080917E0290917F028C0F9D1F909351
:102F00007F0280937E028091800290918102C80F9F
:102F1000D91FD0938102C0938002DF91CF91089591
:102F2000CF93C82F84E0C89FF0011124E85EF94FC9
:102F30002081318142815381FB01608171818281D5
:102F400093810E9467AA0E9498A88C2FCF91C4CF2A
:102F50009091D305981791F00E94A26184E391E0CB
:102F60000E9457608091D30591E089278093D30513
:102F700084E391E00E94C8600C94544F089580E06F
:102F8000E7DF8FEA95E00C94C64CDC01ED91FC91F3
:102F90000190F081E02D0994CF93C82F60E683E380
:102FA0009EE00E94839F60E870E0CC2311F06FE800
:102FB00070E083E39EE0E9DF61E083E39EE0CF9190
:102FC0000C948D9FCF93C82F60E683E39EE00E9410
:102FD000839F60EC70E0CC2311F06FEC70E083E332
:102FE0009EE0D3DF61E083E39EE0CF910C948D9F60
:102FF000E82FF0E0EE0FFF1FEE57FD4F808191812B
:103000000895E82FF0E0EE0FFF1FEE57FD4F6081AF
:10301000718190E080E00E94C9A820E030E048EC97
:1030200052E40E9467AA20E030E04CE555E40E949B
:1030300030A820E030E040E05FE30E9450A70E940B
:103040009DA8862F0895CF93DF9383E39EE00E948F
:103050006E9F21E048E160E683E39EE00E94779F57
:1030600083E39EE00E94DC9E892B21F183E39EE0B6
:103070000E94E39EC82F83E39EE00E94E39ED82F28
:1030800083E39EE00E94E39EC3FDEACF682F8D2F6D
:103090008F700E94A2A1EC2FCC0FFF0B23E0F695BE
:1030A000E7952A95E1F7E670FF27EE57FD4F9183EC
:1030B0008083D6CFDF91CF910895CF93DF9360E6E1
:1030C00083E39EE00E94839F60E570E083E39EE0DF
:1030D0005CDFC2E8D2E069812296606870E083E339
:1030E0009EE053DFFE013297608183E39EE00E9401
:1030F000069F82E0CA38D80771F761E083E39EE05B
:10310000DF91CF910C948D9FCF93DF9360E683E3A3
:103110009EE00E94839FC2E8D2E06981229683E309
:103120009EE00E94069FFE013297608183E39EE04D
:103130000E94069F82E0CA38D80779F761E083E3EE
:103140009EE0DF91CF910C948D9FE82FF0E0EE0F81
:10315000FF1FEE57FD4F71836083D6CF2F923F92B2
:103160004F925F926F927F928F929F92AF92BF9297
:10317000CF92DF92EF92FF920F931F93CF93DF9343
:10318000EC018A819B8100EC1DE0809FB001819F52
:10319000700D909F700D112490E080E00E94C9A8EE
:1031A0002AE037ED43E25CE30E9467AA0E949DA8F3
:1031B0002B018C819D81809FB001819F700D909F1C
:1031C000700D112490E080E00E94C9A82AE037ED3C
:1031D00043E25CE30E9467AA0E949DA84B018E8196
:1031E0009F81809FB001819F700D909F700D112471
:1031F00090E080E00E94C9A82AE037ED43E25CE35A
:103200000E9467AA0E949DA86B0182E8282E82E096
:10321000382E88819981809FB001819F700D909F89
:10322000700D112490E080E00E94C9A82AE037EDDB
:1032300043E25CE30E9467AA0E949DA8F1017183AA
:1032400060835382428295828482D782C682DF91D4
:10325000CF911F910F91FF90EF90DF90CF90BF9093
:10326000AF909F908F907F906F905F904F903F9026
:103270002F904ACFCF93C82F60E083E39EE00E9457
:10328000839F6C2F83E39EE00E94069F61E083E3AF
:103290009EE0CF910C948D9FE82F880FFF0BEC5D83
:1032A000FD4F8081A5DEBC0190E080E00E94C9A8AE
:1032B00020E030E040E05EE30E9467AA29E032EFC0
:1032C00044E15CE30C9467AABEDE86E0D3DF8111A3
:1032D0001EC081E080938A025FDE80E073DE80E0C2
:1032E00090DE811107C081E091E038DFE6DE90E0FA
:1032F00080E0089581E085DE8823A9F382E081DE05
:10330000882389F383E07DDE882369F3F0CF8FEF94
:103310009FEF089590918A02992379F09B01613C77
:103320007D4010F020EC3DE0E82FF0E0EC5DFD4F3B
:10333000B90180810ADF88E09DCF0895CF92DF92A6
:10334000EF92FF92CF93C82F6A017B0120E030E01B
:1033500048EC52E4CB01B6010E9429A887FD06C0C3
:10336000C12CD12C88ECE82E82E4F82E20E030E04D
:103370004CE555E4C701B6010E9467AA20E030E0A1
:1033800048EC52E40E9430A80E949DA88C2FCF9157
:10339000FF90EF90DF90CF90BDCF80918A02811196
:1033A0008CCE0895CF92DF92EF92FF926A017B015B
:1033B00026DC22E0B701A60184E792E0FF90EF90BF
:1033C000DF90CF903ACC80918A02882309F465C0BF
:1033D00023DC8EEC92E013DC1FDC83E012DE682F2E
:1033E00070E090E080E00E94C9A8AB01BC0181EAD6
:1033F00092E0D8DF80E050DFAB01BC018BEC92E0C3
:10340000D1DF89EC92E0FBDB82E0FBDD682F70E02E
:1034100090E080E00E94C9A8AB01BC018DE992E078
:10342000C1DF81E039DFAB01BC0186EC92E0BADF9D
:1034300084EC92E0E4DB81E0E4DD682F70E090E072
:1034400080E00E94C9A8AB01BC0189E992E0AADF33
:1034500082E022DFAB01BC0181EC92E0A3DF8FEBC5
:1034600092E0CDDB80E0CDDD682F70E090E080E081
:103470000E94C9A8AB01BC0185E992E093DF83E01B
:103480000BDFAB01BC018CEB92E08CDF8AEB92E0AE
:10349000B6DB6AE084E792E0C9C808950F931F93F2
:1034A000CF938C01C62F8CEF92E0A9DBC801A7DB7C
:1034B000CC2339F06AE084E792E0CF911F910F911D
:1034C000B5C8CF911F910F91089561E083EF92E00D
:1034D000E5CF8091BC029091BD02009731F04AE0A7
:1034E00050E070E060E00C9486AC60E070E0CB01EE
:1034F00008954F925F926F927F928F929F92AF92B8
:10350000BF92CF92DF92EF92FF92CF93DF9300D0E2
:1035100000D01F92CDB7DEB78091B5029091B60270
:10352000A091B702B091B80232E1B695A7959795F0
:1035300087953A95D1F79C01AD0121703327442737
:10354000552729833A834B835C8380FFDCC0E0915D
:10355000AD02EE2309F4CBC08091C0029091C1026C
:10356000E80FF92FF11D808190ED980F9A3040F00F
:103570008E3209F0ABC0818180538A3008F0B4C02C
:10358000F093BD02E093BC028091BC029091BD0219
:10359000892B59F09EDF97FDB4C09BDF6F3F71050B
:1035A0008105910509F00CF4A7C031E03D834090FE
:1035B0003401509035016090360170903701809051
:1035C000380190903901A0903A01B0903B01C09031
:1035D0003C01D0903D01E0903E01F0903F01898197
:1035E0009A81AB81BC81892B8A2B8B2B29F09D8101
:1035F000911102C080E0ACDC8091B5029091B602DE
:10360000A091B702B091B80225E1B695A79597951C
:1036100087952A95D1F780FF06C06BE573E08FEAA6
:1036200095E00E94CE4D8D8193DCAD81AA2341F0BF
:103630008091D305811104C0F2DA8CE393E0DFDAE4
:10364000EBDA8EE293E0DBDA8091D305F3DAA301C3
:103650009201609134017091350180913601909111
:1036600037010E9429A881111CC0A5019401609115
:1036700038017091390180913A0190913B010E948B
:1036800029A881110EC020913C0130913D0140914B
:103690003E0150913F01C701B6010E9429A888232D
:1036A000B1F10F900F900F900F900F90DF91CF918D
:1036B000FF90EF90DF90CF90BF90AF909F908F9052
:1036C0007F906F905F904F900C94E3568D3211F085
:1036D0008B3251F4818190ED980F9A3008F450CFDD
:1036E0008E3211F4828148CFF0E0E0E049CF1092B1
:1036F000BD021092BC0248CFECDE41E04D83611167
:1037000056CF1D8254CFB091D305BD8350CF0F90BB
:103710000F900F900F900F90DF91CF91FF90EF904F
:10372000DF90CF90BF90AF909F908F907F906F90E1
:103730005F904F900895CF93C82F41E06CE173E004
:103740000E94FC318C2F0E94572EC091D30583E13B
:1037500093E055DA4C2F50E070E060E02AE030E072
:1037600084E792E01BD986E093E049DA8091D305A3
:10377000CF9160CA2FEB280F2A3108F047C0E22F03
:10378000F0E08091B5029091B602A091B702B0919D
:10379000B80204C0B695A795979587952A95D2F754
:1037A00080FD02C081700895E556FD4FE081EE2353
:1037B00041F18091C0029091C102E80FF92FF11DF3
:1037C000808190ED980F9A3030F08E3251F48181E3
:1037D00080538A3098F4F093BD02E093BC0281E0FC
:1037E00008958D3211F08B3249F4818190ED980F5C
:1037F0009A3088F38E3211F48281EACFF0E0E0E073
:10380000EACF1092BD021092BC02E9CF80E0089589
:10381000B1DF882341F081E02091BC023091BD02EC
:10382000232B09F480E00895CF93DF93D82FC62F80
:10383000EFDF8823D9F08091BC029091BD02892BE3
:1038400029F4C1E08C2FDF91CF91089542DE97FDDE
:103850000BC03FDE6F3F71058105910509F08CF7C4
:1038600038DEC1E06111EECFC0E0ECCF8D2F82DFFA
:10387000882341F3E6CF4F925F926F927F928F92AF
:103880009F92AF92BF92EF92FF920F931F93CF93AD
:10389000DF93EC018B017A01FA01208531854285A5
:1038A0005385FB0160857185828593850E944FA7B2
:1038B0004B015C01F7012481358146815781F80174
:1038C00064817581868197810E944FA72B013C01FD
:1038D000F7012081318142815381F801608171813A
:1038E000828193810E944FA7688379838A839B8317
:1038F0004C825D826E827F8288869986AA86BB868C
:10390000CE01DF91CF911F910F91FF90EF90BF906B
:10391000AF909F908F907F906F905F904F900895A1
:103920004F925F926F927F928F929F92AF92BF92CF
:10393000CF92DF92EF92FF920F931F93CF93DF937B
:1039400000D000D0CDB7DEB78C018091740C90917F
:10395000750C9A838983DC01CD90DD90ED90FC900D
:1039600020E030E0A901C701B6010E9450A74B0139
:103970005C0120E030E040E251E40E9429A887FF8A
:1039800006C0812C912C30E2A32E31E4B32EA98104
:10399000BA8114968D919D910D90BC91A02D898333
:1039A0009A83AB83BC8320E030E0A901BC01CD0148
:1039B0000E9450A72B013C0120E030E040E251E49E
:1039C0000E9429A887FF06C0412C512C20E2622EBC
:1039D00021E4722EF80180829182A282B382448215
:1039E00055826682778220E030E048EC52E4C701DD
:1039F000B6010E9450A76B017C0120E030E044EB4F
:103A000052E40E942CAA181634F4C12CD12C94EB49
:103A1000E92E92E4F92EF801C486D586E686F7866B
:103A2000408A518A628A738AA5019401C701B6014E
:103A30000E9450A720E030E040E05FE30E9467AAC8
:103A40004B015C0120E030E048EC52E469817A816E
:103A50008B819C810E9450A76B017C0120E030E0AB
:103A600044EB52E40E942CAA181634F4C12CD12C39
:103A700084EBE82E82E4F82EF801808E918EA28EDF
:103A8000B38EC48ED58EE68EF78E0F900F900F906A
:103A90000F90DF91CF911F910F91FF90EF90DF90EA
:103AA000CF90BF90AF909F908F907F906F905F90DE
:103AB0004F9008954F925F926F927F928F929F9254
:103AC000AF92BF92CF92DF92EF92FF920F931F932C
:103AD000CF93DF93CDB7DEB7CC58D1090FB6F894AA
:103AE000DEBF0FBECDBF0FB6F8948091F20E90915D
:103AF000F30EA091F40EB091F50E0FBE80939602D6
:103B000090939702A0939802B09399028091D30565
:103B1000811159C08091B5029091B602A091B7026F
:103B2000B091B8023DE0B695A795979587953A95DF
:103B3000D1F780FF04C080EF93E00E942A3187E034
:103B40000E94E755811145C019861A861B861C867E
:103B50001D821E821F82188619821A821B821C8275
:103B60001D8A1E8A1F8A188E198A1A8A1B8A1C8A25
:103B70001D861E861F86188A19A21AA21BA21CA2C5
:103B80001D8E1E8E1F8E18A2198E1A8E1B8E1C8ED5
:103B9000CE010196C5DE8091D30525968FAF25977E
:103BA0008091B5029091B602A091B702B091B8028F
:103BB00029E0B695A795979587952A95D1F780FF27
:103BC00020C0DDD906C060E08FE42EDE882309F432
:103BD000A1CFC457DF4F0FB6F894DEBF0FBECDBFE5
:103BE000DF91CF911F910F91FF90EF90DF90CF90D9
:103BF000BF90AF909F908F907F906F905F904F900D
:103C0000089586E505DE70E060E0811162DC7EAB40
:103C10006DAB6530710528F08BEC93E00E94FF15C9
:103C2000D8CF60E084E400DE24968FAF24978DA97E
:103C30009EA91816190694F485EB93E00E94FF15CF
:103C400024968FAD2497882321F08BEA93E00E947D
:103C5000FF156AE084E792E00E9416130E94A261B9
:103C600019A21AA21BA21CA21D8A1E8A1F8A188EC4
:103C700019861A861B861C860E94BA5180E068D974
:103C800081E00E94AE76882329F025968FAD259796
:103C90005FD99FCF60E085E4C7DD11E0811101C0ED
:103CA00013E023961CAE1DAE1EAE1FAE2397CE01B1
:103CB00001966C01812C912C540183948DA99EA9AD
:103CC000892B81F08CE993E00E94FF152AE030E017
:103CD000B501A40184E792E00E94CE1487E993E045
:103CE0000E94FF15F60184819581A681B7814081EC
:103CF0005181628173814FAB58AF69AF7AAF8BAF9F
:103D00009CAFADAFBEAFEE24E39401E02DA9412FEF
:103D1000BE01655C7F4FCE01C7960E9400782B01E3
:103D20003C0123964CAE5DAE6EAE7FAE2397AC01E8
:103D30009B010E9415AB81115FC1F601408651863F
:103D400062867386FCE0CF0ED11C8FEF881A980A2A
:103D5000A80AB80A94E089169104A104B10409F0F4
:103D6000ADCF24968FAD249781117AC023966CAD88
:103D70007DAD8EAD9FAD23979B01AC010E9415AB2D
:103D800081116EC0AE01435F5F4FBE01675E7F4F22
:103D9000CE018B5B9F4F6FDDAE01435F5F4FBE0176
:103DA0006F5F7F4FCE018F5A9F4F65DDAE014B5B3A
:103DB0005F4FBE016F5A7F4FCE0185960E94134A16
:103DC000BE016B5D7F4FCE01835A9F4F0E94624BB5
:103DD000A996CCACDDACEEACFFACA99720E030E00E
:103DE000A901C701B6010E9429A887FF24C0A19696
:103DF0008CAD9DADAEADBFADA197B058A1968CAFC7
:103E00009DAFAEAFBFAFA197A5968CAD9DADAEAD4A
:103E1000BFADA597B058A5968CAF9DAFAEAFBFAF65
:103E2000A597F7FAF094F7F8F094A996CCAEDDAE2A
:103E3000EEAEFFAEA997BE01635A7F4FCE01875900
:103E40009F4F0E94314D84E2FE01E759FF4FAFEAD8
:103E5000B5E001900D928A95E1F725961FAE259762
:103E600080E00E94AE76882371F025968FAD25976D
:103E70006FD880E090E0A0ECBFE723968CAF9DAFB9
:103E8000AEAFBFAF239723966CAD7DAD8EAD9FAD2A
:103E900023979B01AC010E9415AB8111A8C08DA98D
:103EA0009EA91816190634F468E773E08FEA95E0C6
:103EB0000E94CE4D24968FAD249781118EC080E153
:103EC000E4E3F1E0DE01959601900D928A95E1F729
:103ED00081E08093D305CE0185960E94C860109240
:103EE000D305E090740CF090750CF70120813181BE
:103EF000428153816FA978AD89AD9AAD0E944FA7D9
:103F00009B01AC01609134017091350180913601C3
:103F1000909137010E944FA74B015C012DEB37E3D5
:103F200046E855EB0E942CAA87FD4AC02DEB37E3EB
:103F300046E855E3C501B4010E9429A818160CF4FF
:103F40003FC0F70124813581468157816BAD7CAD3F
:103F50008DAD9EAD0E944FA79B01AC0160913801D1
:103F60007091390180913A0190913B010E944FA7D5
:103F70006B017C012DEB37E346E855EB0E942CAA40
:103F800087FD1EC02DEB37E346E855E3C701B601B8
:103F90000E9429A81816A4F023962CAD3DAD4EAD75
:103FA0005FAD239760913C0170913D0180913E018E
:103FB00090913F010E944FA76DA77EA78FA798AB56
:103FC00080E1FE01B596A4E3B1E001900D928A95DF
:103FD000E1F781E025968FAF259725968FAD259740
:103FE000882329F081E08093D3050E94544F0E94DA
:103FF000C2510E94E356EDCD25968FAD25970E94C4
:10400000A817AFCE4F925F926F927F928F929F923E
:10401000AF92BF92CF92DF92EF92FF92CF93DF9356
:10402000CDB7DEB72C970FB6F894DEBF0FBECDBF6D
:1040300083E00E94E75581119AC00E94544F20915D
:104040001D0530911E0540911F055091200560E02F
:1040500070E088E492E40E944FA76B017C012091FC
:10406000210530912205409123055091240560E0FF
:1040700070E088E492E40E944FA72B013C018091FC
:104080003C0190913D01A0913E01B0913F01809390
:10409000490590934A05A0934B05B0934C05A09019
:1040A000740CB090750CF5012081318142815381EF
:1040B000C701B6010E944FA76B017C01C092410568
:1040C000D0924205E0924305F0924405F501248127
:1040D000358146815781C301B2010E944FA74B0130
:1040E0005C018092450590924605A0924705B092EA
:1040F000480527E137EB41ED58EB0E942CAA87FDDC
:104100004BC02DE030E048EC52E4C501B4010E9400
:1041100029A818160CF440C027E137EB41ED58EB05
:10412000C701B6010E942CAA87FD36C02DE030E001
:1041300048EC52E4C701B6010E9429A8181664F1A0
:1041400019861A861B861C8688E0E1E4F5E0DE010C
:10415000119601900D928A95E1F7BE01675F7F4F3E
:10416000CE0101960E940E5182E00E94F9542C96D5
:104170000FB6F894DEBF0FBECDBFDF91CF91FF9099
:10418000EF90DF90CF90BF90AF909F908F907F90F7
:104190006F905F904F90089560E088E094E00E94F7
:1041A00037490E940C1686EF93E00E94FF15DFCF7F
:1041B000AF92BF92CF92DF92EF92FF920F931F9335
:1041C000CF93DF9300D000D0CDB7DEB787E00E9459
:1041D0008953811111C08091B5029091B602A091CE
:1041E000B702B091B8024EE0B695A795979587951E
:1041F0004A95D1F780FDC1C00E94A26110921101C1
:10420000E090D3058CE404DB882309F4D7C08091C7
:10421000BC029091BD02892B09F0BEC0EE24E3944C
:1042200080E00E94A8170FB6F8948091F20E90914A
:10423000F30EA091F40EB091F50E0FBE809396028E
:1042400090939702A0939802B09399020E94BA515A
:1042500081E00E94314E8091B5029091B602A0910A
:10426000B702B091B80239E1B695A79597958795B1
:104270003A95D1F7282F2170F22E10E080FF0DC063
:1042800081E00E948953082F82E00E94895311E047
:10429000811101C010E00111A0C08091B502909180
:1042A000B602A091B702B091B80227E1B695A795E2
:1042B000979587952A95D1F780FD8FC0112309F432
:1042C0008FC0012F10E082E5A3DAA82E60E070E035
:1042D00080E490E4AA2001F18091BC029091BD029B
:1042E000009709F476C0FC016F01B1902B2D2F7D52
:1042F00009F46AC025E4B21619F025E6B212F4CF2B
:10430000F601108270E060E08091BC029091BD02E5
:104310000E9431ABF601B08269837A838B839C83E0
:1043200020E030E0A9010E9429A8882369F0A110AB
:1043300006C0111104C0011102C0FF2089F060E025
:10434000CE0101960E945251112319F080E00E9483
:10435000F954002319F081E00E94F954F11052DE63
:104360000E94544F0E94024EEE2019F081E00E94FC
:10437000A8170E94C2510E94E3560F900F900F9011
:104380000F90DF91CF911F910F91FF90EF90DF90F1
:10439000CF90BF90AF9008959CD897FD0DC099D84D
:1043A0006F3F71058105910511F00CF037CF91D861
:1043B000EE24E394611134CFE12C32CF8CE4DAD9CE
:1043C000882309F42DCF2ACF70E060E00E9431AB42
:1043D000A3CF60E070E0CB019FCF111106C011E0C8
:1043E0000091B802017001136ECF012FF1126BCF53
:1043F00011E001E0FF24F39466CF0F931F93CF9356
:104400008091BC029091BD02009709F1FC018F01DF
:10441000C1912C2F2F7DA1F0C53411F0C536B9F70D
:10442000F801108270E060E08091BC029091BD02C2
:104430000E9431ABF801C083CF911F910F91089575
:1044400070E060E0CF911F910F910C9431AB60E070
:1044500070E0CB01F1CFCF93C82F0E94FC318C2F9D
:10446000CF910C94572E0E94D2196AE084E792E013
:104470000C941613CF93DF9341E06CE175E0EBDF12
:10448000C4E0D6E0688179818A819B810E94C9A8B5
:10449000AB01BC0183E195E00E94D2196C817D8162
:1044A0008E819F810E94C9A8AB01BC018BEA92E07A
:1044B0000E94D219688579858A859B850E94C9A842
:1044C000AB01BC0188EA92E00E94D2196C857D851F
:1044D0008E859F850E94C9A8AB01BC0185EA92E048
:1044E000DF91CF91C0CF0F931F93CF938091B502EF
:1044F00084FD0DC08091B702887849F48091B8029C
:10450000837029F481E0CF911F910F91B3CF0E9466
:10451000673287FD12C008E212E0C0E0F801819125
:104520008F0176D9882331F068DFAB01BC018C2F75
:104530000E94F873CF5FC43089F7CF911F910F911C
:104540000895CF93DF9341E06BEF74E084DFC4E024
:10455000D6E04CA15DA16EA17FA182EF94E00E9404
:10456000D21948A559A56AA57BA58BEA92E00E94BD
:10457000D2194CA55DA56EA57FA588EA92E00E94A0
:10458000D21948A959A96AA97BA985EA92E0DF91C5
:10459000CF9169CF0F931F93CF938091B50284FD84
:1045A0000DC08091B702887849F48091B802837079
:1045B00029F481E0CF911F910F91C3CF0E94673200
:1045C00087FD12C008E212E0C0E0F80181918F017E
:1045D0001FD9882331F011DFAB01BC018C2F0E9461
:1045E0000B74CF5FC43089F7CF911F910F9108955D
:1045F000CF93DF9341E068EA74E02DDFC4E0D6E0BA
:104600004CA95DA96EA97FA98FE994E00E94D219F7
:1046100048AD59AD6AAD7BAD8CE994E00E94D219EA
:104620004CAD5DAD6EAD7FAD87EB92E0DF91CF918C
:104630001ACF8091B60287FD06C08091B7028E70B6
:1046400011F481E0D5CF83E5E3D8882389F0D5DE66
:10465000609338067093390680933A0690933B0630
:104660006093400670934106809342069093430600
:1046700080E5CED8882349F0C0DE60933806709379
:10468000390680933A0690933B0682E5C1D8882389
:1046900049F0B3DE60933C0670933D0680933E067E
:1046A00090933F0684E5B4D8882349F0A6DE609352
:1046B0004006709341068093420690934306089506
:1046C00041E068E274E0C7DE60911406709115065F
:1046D00080911606909117060E94C9A8AB01BC01F3
:1046E0008FE194E00E94D219409144065091450612
:1046F00060914606709147068CE194E00E94D219C1
:10470000409148065091490660914A0670914B06C7
:1047100087EB92E00E94D2194091E0055091E105AB
:104720006091E2057091E30589E194E09CCE8F925F
:104730009F92AF92BF92CF92DF92EF92FF928091C1
:10474000B50281FD12C08091B60281FD0EC080913C
:10475000B7028C7051F481E0FF90EF90DF90CF9022
:10476000BF90AF909F908F90ABCF82E451D88823B9
:10477000A9F08091BC029091BD02009709F47EC01F
:104780004AE050E070E060E00E94B1AD6093140632
:1047900070931506809316069093170683E538D814
:1047A000882349F02ADE609344067093450680937F
:1047B00046069093470684E52BD8882349F01DDEF2
:1047C000609348067093490680934A0690934B067F
:1047D0008AE41ED8882309F448C00FDE6B017C01EF
:1047E0002AE037ED43E25CE30E942CAA87FD4AC031
:1047F0002AE939E949E95EE3C701B6010E9429A81F
:1048000018160CF43FC0C092E005D092E105E0928A
:10481000E205F092E305609104067091050680912F
:104820000606909107060E94C9A84B015C0123EF80
:1048300034E045E35FE3C701B6010E9467AA2AE1BD
:1048400036EF45E95EE30E9430A89B01AC01C5014B
:10485000B4010E9467AA0E94D4AA6093DC057093F9
:10486000DD058093DE059093DF05FF90EF90DF90EC
:10487000CF90BF90AF909F908F90089560E070E0D0
:10488000CB0184CF0E940F168DE794E0FF90EF904C
:10489000DF90CF90BF90AF909F908F900C94FF15BA
:1048A000CF93811115C040E061E575E00E94FC31B5
:1048B0008091C202811104C084E495E00E94FF153A
:1048C0006AE084E792E00E94161380E00E94572E6F
:1048D000C091C2028BE395E00E94FF154C2F50E07F
:1048E00070E060E02AE030E084E792E00E94CE14BD
:1048F0004091D8055091D9056091DA057091DB059A
:1049000088E395E0CF91AFCDCF92DF92EF92FF9207
:104910001F93CF93DF938091B50283FD0DC08091EB
:10492000B7028C7049F481E0DF91CF911F91FF9025
:10493000EF90DF90CF90B4CF0E946732D82F87FDE1
:1049400071C0C091C20284E40E94081C182F882301
:10495000D1F153DD6B017C0120E030E0A9010E9420
:1049600029A8811102C0C0E03AC084E0D802F00159
:104970001124E852FA4FC082D182E282F38220E011
:1049800030E0A901C701B6010E942CAA1816D4F480
:1049900020E030E040E05FE3C701B6010E9467AA73
:1049A0009B01AC010E9467AA2BED3FE049E450E473
:1049B0000E9467AA60934D0170934E0180934F014E
:1049C00090935001C12F83E50E94081C882321F198
:1049D0008091BC029091BD02892B61F4C1E0C0932B
:1049E000C202DF91CF911F91FF90EF90DF90CF90A7
:1049F0000C94F05F0E94691A97FDB5CF0E94691A66
:104A00006F3F71058105910509F044F70E94691A0D
:104A1000C1E06111E4CFA7CF83E50E94BA1B8823D0
:104A2000F1F2DCCFDF91CF911F91FF90EF90DF90FB
:104A3000CF900895CF93DF9382E40E94BA1B88231E
:104A400041F080912E0190912F0190930A01809363
:104A5000090182E50E94BA1B882341F08091090177
:104A600090910A0190932F0180932E0183E50E947B
:104A7000BA1B882381F08091BC029091BD020097FF
:104A800051F04AE050E070E060E00E9486AC709324
:104A90002F0160932E018091B5029091B602A091F2
:104AA000B702B091B802892B8A2B8B2BF1F4C091FD
:104AB0002E01D0912F0183E695E00E94FF15AE01F3
:104AC000DD0F660B770B2AE030E084E792E00E946E
:104AD000CE1465E284E792E00E9416136AE084E750
:104AE00092E0DF91CF910C941613DF91CF9108954E
:104AF0000F931F93CF93DF930E946732182F87FD88
:104B0000ACC08091B5029091B602A091B702B0916D
:104B1000B80232E1B695A795979587953A95D1F762
:104B2000C12F012E000CDD0B80FF24C0E091AD02EF
:104B3000EE2309F460C08091C0029091C102E80F99
:104B4000F92FF11D808190ED980F9A3040F08E3250
:104B500009F040C0818180538A3008F049C0F09349
:104B6000BD02E093BC028091BC029091BD0200970F
:104B700009F046C00E940C1665E484E792E00E94AA
:104B8000161360E3610F84E792E00E941613CC0FC6
:104B9000DD1FCB5ADE4F0990D881C02D87E695E006
:104BA0000E94FF15AE01DD0F660B770B2AE030E0A7
:104BB00084E792E00E94CE1465E284E792E00E94CE
:104BC00016136AE084E792E0DF91CF911F910F9175
:104BD0000C9416138D3211F08B3251F4818190EDCB
:104BE000980F9A3008F4BBCF8E3211F48281B3CF84
:104BF000F0E0E0E0B4CF1092BD021092BC02B3CF5F
:104C00004AE050E070E060E00E9486ACFE01EE0FEA
:104C1000FF1FEB5AFE4F71836083CC0FDD1FCC0F5B
:104C2000DD1F8E010F5A1E4F072E000C880B990BAB
:104C30000E94CBA82AE037ED43E25CE30E9467AA1A
:104C4000CC52DA4F288139814A815B810E9467AA60
:104C5000F8016083718382839383DF91CF911F91E9
:104C60000F910895CF92DF92EF92FF92CF93DF934F
:104C7000C82F41E061E875E00E94FC318C2F0E9452
:104C8000572EC7E1DEE0CB84DC84ED84FE8488E728
:104C900095E00E94FF15C701B6010E949D162CEAFF
:104CA00035EC47E25EE36F85788989899A890E94AD
:104CB00030A86B017C0185E795E00E94FF15C701D4
:104CC000B6010E949D162CEA35EC47E25EE36B8943
:104CD0007C898D899E890E9467AA6B017C0182E78D
:104CE00095E00E94FF15C701B6010E949D16CF886E
:104CF000D88CE98CFA8C81EB92E00E94FF15C701F9
:104D0000B6010E949D16C0910D0ED0910E0E8FE639
:104D100095E00E94FF15AE01DD0F660B770B2AE0D0
:104D200030E084E792E00E94CE146AE084E792E0EB
:104D3000DF91CF91FF90EF90DF90CF900C941613FE
:104D40008091B5028C7031F48091B602897811F4AB
:104D500081E088CF80E50E94081C882349F04DDB64
:104D60006093220E7093230E8093240E9093250E51
:104D700089E40E94081C882379F03FDB2CEA35EC9B
:104D800047E25EE30E9467AA6093260E7093270EA7
:104D90008093280E9093290E84E40E94081C882397
:104DA00079F02BDB2CEA35EC47E25EE30E9430A879
:104DB00060932A0E70932B0E80932C0E90932D0EE1
:104DC00083E40E94081C882349F017DB60932E0EB1
:104DD00070932F0E8093300E9093310E8CE40E94CE
:104DE000081C882381F08091BC029091BD0200973D
:104DF00049F14AE050E070E060E00E9486AC7093B8
:104E00000E0E60930D0E80910D0E90910E0EC397B5
:104E100034F082E390E090930E0E80930D0E80911B
:104E20000D0E90910E0E97FF04C010920E0E109270
:104E30000D0E1092080E1092090E10920A0E10928A
:104E40000B0E089560E070E0CB01D9CFCF93DF93D4
:104E500083E50E94BA1BD82F882361F00E94691A4B
:104E600070936F0160936E0121E0672B09F020E0E1
:104E700020930F0E80E50E94BA1BC82F882319F1DA
:104E800080916E0190916F01892BC1F08091BC02DD
:104E90009091BD02892B91F00E94691A97FD0DC077
:104EA0000E94691A6F3F71058105910509F034F47C
:104EB0000E94691AC1E0611101C0C0E0C0930F0EE9
:104EC000DF91CF910895D111FBCF0E940C1688EA93
:104ED00095E00E94FF1580910F0E81111CC081EAA0
:104EE00095E00E94FF15C0916E01D0916F0180E99D
:104EF00095E00E94FF15AE01DD0F660B770B2AE0EF
:104F000030E084E792E00E94CE148CE895E0DF91D7
:104F1000CF910C94FF1585EA95E0E3CFCF92DF9215
:104F2000EF92FF92CF93DF93C82F41E063EC75E0DF
:104F30000E94FC318C2FBBD6C4E0D6E0CC88DD8843
:104F4000EE88FF888BEB95E00E94FF15C701B60144
:104F50000E949D16C88CD98CEA8CFB8C8BEA92E05F
:104F60000E94FF15C701B6010E949D16CC8CDD8CF6
:104F7000EE8CFF8C88EA92E00E94FF15C701B60113
:104F80000E949D16C8A0D9A0EAA0FBA085EA92E0E5
:104F90000E94FF15C701B6010E949D166AE084E7D2
:104FA00092E0DF91CF91FF90EF90DF90CF900C9443
:104FB00016134F925F926F927F92AF92BF92CF92F1
:104FC000DF92EF92FF920F931F93CF930E9467326D
:104FD00087FD9AC09091B50294FD18C09091B702D8
:104FE00097FD14C09091B802937081F4682F81E00E
:104FF000CF911F910F91FF90EF90DF90CF90BF90D6
:10500000AF907F906F905F904F9088CF8CE2A82EEA
:1050100082E0B82E04E016E0C0E0F50181915F0166
:105020000E94BA1B882371F08091BC029091BD024E
:10503000892B41F0C330D1F0E0D9F801648B758B36
:10504000868B978BCF5F0C5F1F4FC43031F7CF91AA
:105050001F910F91FF90EF90DF90CF90BF90AF9096
:105060007F906F905F904F900C94D473C6D96B0172
:105070007C0120E030E040EA51E40E9429A887FF4B
:105080003AC0A7019601609124067091250680918F
:105090002606909127060E9430A82B013C01AC0106
:1050A0009B0160913406709135068091360690918F
:1050B00037060E9467AA6093340670933506809382
:1050C0003606909337066091000670910106809134
:1050D0000206909103060E94C9A8A30192010E94B2
:1050E00067AA0E949DA860930006709301068093B2
:1050F000020690930306C0922406D0922506E09201
:105100002606F09227069ECFCF911F910F91FF9018
:10511000EF90DF90CF90BF90AF907F906F905F90B7
:105120004F90089510920001089541E070E060E012
:1051300083E792E00C9420130C94E44F1F93CF93D9
:10514000DF938091B5029091B602A091B702B09121
:10515000B80222E1B695A795979587952A95D1F73C
:1051600080FF34C0E091AD02EE2309F478C0809155
:10517000C0029091C102E80FF92FF11D808190EDDE
:10518000980F9A3040F08E3209F058C081818053D8
:105190008A3008F061C0F093BD02E093BC028091B8
:1051A000BC029091BD02892B89F00E94691A97FD7B
:1051B0005BC00E94691A6F3F71058105910511F06E
:1051C0000CF054C00E94691A60937D020E940C1674
:1051D00086ED95E00E94FF1580917D02882309F4F9
:1051E00047C0D0E0C0E020E080917D0290E00C2E2E
:1051F00002C0959587950A94E2F780FF13C011E0ED
:10520000120F222329F06CE284E792E00E94161329
:10521000FE01EE0FFF1FE352FA4F859194910E9419
:10522000FF15212F2196C530D105F1F66AE084E7FC
:1052300092E0DF91CF911F910C9416138D3211F0F3
:105240008B3251F4818190ED980F9A3008F4A3CFFE
:105250008E3211F482819BCFF0E0E0E09CCF10927F
:10526000BD021092BC029BCF60E0AECF6FEFACCF1F
:1052700082ED95E00E94FF15D9CF81E00C94244E79
:1052800080E00C94244E8091B50284FD0BC0809187
:10529000B70287FD07C09091B802937081E019F4BE
:1052A00080E0089581E00895EEDF882309F447C087
:1052B00085E40E94BA1B882381F08091BC02909102
:1052C000BD020097C9F14AE050E070E060E00E9442
:1052D00086AC611102C00E94DD838091B50290917D
:1052E000B602A091B702B091B80237E1B695A79582
:1052F000979587953A95D1F780FF03C080E00E948B
:105300009F838091B80280FF03C081E00E949F8349
:105310008091B5029091B602A091B702B091B80207
:1053200029E1B695A795979587952A95D1F780FF9E
:105330000DC082E00C949F830E94EC83CECF60E08E
:105340008DE096E00E9437490C94EE8308950F9308
:105350001F93CF9383E50E94BA1B882309F449C0A9
:105360008091BC029091BD02009709F442C00FB633
:10537000F8944091F20E5091F30E6091F40E7091FA
:10538000F50E0FBE409396025093970260939802D9
:1053900070939902FC018F01C1912C2F2F7D21F177
:1053A000C53411F0C536B9F7F801108270E060E03D
:1053B0008091BC029091BD020E9431ABF801C08384
:1053C00020E030E04AE754E40E9467AA0E949DA8CA
:1053D00060930C0170930D0180930E0190930F0167
:1053E000CF911F910F91089570E060E00E9431AB62
:1053F000E7CF49DF8823D1F10E94A26185E40E94B2
:10540000BA1B81110E94ED838091B5029091B60282
:10541000A091B702B091B80237E1B695A7959795DC
:1054200087953A95D1F780FF03C080E00E94B6834C
:105430008091B80280FF03C081E00E94B683809112
:10544000B5029091B602A091B702B091B80229E1DD
:10545000B695A795979587952A95D1F780FFC0CFE8
:1054600082E0CF911F910F910C94B683CF911F9141
:105470000F910C947A612F923F924F925F926F92AC
:105480007F928F929F92AF92BF92CF92DF92EF92D4
:10549000FF920F931F93CF93DF93CDB7DEB7A09703
:1054A0000FB6F894DEBF0FBECDBFF82E41E065E326
:1054B00076E0A2D78F2DFBD300E111E0D8018C91CB
:1054C00090E3E92EE80E8CE296E00E94FF156E2D27
:1054D00084E792E00E94161388E296E00E94FF158E
:1054E000F80180810E941A168F2DE1D3D8011696FB
:1054F000CD90DD90ED90FC9019971A968D919D912D
:105500000D90BC91A02D898F9A8FAB8FBC8F21E11C
:10551000222E25E0322EF10140805180628073807E
:10552000A3019201D80112966D917D918D919C916C
:1055300015970E9450A76D877E878F87988BF10102
:1055400084809580A680B780A5019401C701B6012B
:105550000E9450A7698B7A8B8B8B9C8BD1011896FC
:10556000CD90DD90ED90FC901B97A7019601698D81
:105570007A8D8B8D9C8D0E9450A76D8B7E8B8F8B2F
:10558000988FD80152968D919D910D90BC91A02D30
:10559000898F9A8FAB8FBC8FD80156968D919D9134
:1055A0000D90BC91A02D8D8F9E8FAF8FB8A3A301BE
:1055B0009201F80166857785808991890E9450A7BC
:1055C00069837A838B839C83A5019401698D7A8D8D
:1055D0008B8D9C8D0E9450A76D837E838F839887CF
:1055E000A70196016D8D7E8D8F8D98A10E9450A789
:1055F00069877A878B879C870EE116E020E236E088
:10560000AE014B5E5F4FBE016F5E7F4FCE010D96C8
:105610000E94D61610E000E026E136E0AE01475FBA
:105620005F4FBE016B5F7F4FCE0101960E94D61681
:10563000A0960FB6F894DEBF0FBECDBFDF91CF911D
:105640001F910F91FF90EF90DF90CF90BF90AF90A0
:105650009F908F907F906F905F904F903F902F9092
:1056600008958091B5029091B602A091B702B091D1
:10567000B80222E1B695A795979587952A95D1F717
:1056800080FF4CC0E091AD02EE23E1F18091C002B9
:105690009091C102E80FF92FF11D808190ED980FD4
:1056A0009A3030F08E32F1F4818180538A3038F5AF
:1056B000F093BD02E093BC028091BC029091BD02C8
:1056C000892B61F00E94691A97FD26C00E94691A11
:1056D0006F3F710581059105D1F0CCF081E0809399
:1056E000100108958D3211F08B3249F4818190EDD3
:1056F000980F9A30E8F28E3211F48281D6CFF0E022
:10570000E0E0D6CF1092BD021092BC02D5CF0E942D
:10571000691A81E06111E3CF80E0E1CF81E0ABCE97
:105720000C94A2610E947A6170E060E080E00E94C7
:10573000FE900E9416930E94564968EE73E080E046
:1057400090E00E94281760E083E496E00C943749CB
:105750000F931F93CF938091B5029091B602A091C1
:10576000B702B091B80222E1B695A79597958795B3
:105770002A95D1F780FF73C0E091AD02EE2309F4C2
:1057800044C08091C0029091C102E80FF92FF11D31
:10579000808190ED980F9A3030F08E3231F5818112
:1057A00080538A3078F5F093BD02E093BC020FB6C7
:1057B000F8948091F20E9091F30EA091F40EB091B6
:1057C000F50E0FBE8093960290939702A0939802D5
:1057D000B09399028091BC029091BD02FC010097A8
:1057E000C9F460E070E0CB012AC08D3211F08B3239
:1057F00049F4818190ED980F9A30A8F28E3211F41D
:105800008281CECFF0E0E0E0CECF1092BD021092C8
:10581000BC02CDCF8F01C1912C2F2F7D21F1C5343A
:1058200011F0C536B9F7F801108270E060E08091A0
:10583000BC029091BD020E9431ABF801C08320E010
:1058400030E04AE754E40E9467AA0E949DA8609352
:105850009202709393028093940290939502CF9159
:105860001F910F91089570E060E00E9431ABE7CF87
:1058700083E080937B0283E50E94BA1B8823D1F0EA
:105880008091BC029091BD02892BA1F00E94691AFF
:1058900097FF03C080E00C945B440E94691A6F3F3D
:1058A00071058105910509F024F40E94691A6623A7
:1058B00089F3089583E50E94BA1B882359F3F9CF31
:1058C0000FB6F8944091F20E5091F30E6091F40EE1
:1058D0007091F50E0FBE409396025093970260931D
:1058E00098027093990260E00C94B89E0C947F7CAF
:1058F0000C948B830C949F7ACF9383E50E94BA1B00
:10590000C82F8823C9F08091BC029091BD02892BD9
:1059100099F00E94691A97FD0DC00E94691A6F3FA5
:1059200071058105910509F05CF40E94691AC1E0D6
:10593000611106C0C0E004C083E50E94BA1BC1E04B
:1059400081E08C27CF910C945F7A0E948483882316
:1059500031F00E940C1684E696E00C94FF15089531
:10596000CF92DF92EF92FF92CF93C82F41E068E78A
:1059700076E042D58C2F9BD1C0907505D0907605EE
:10598000E0907705F09078058FE696E00E94FF158D
:1059900022E0B701A60184E792E00E941D166AE0AA
:1059A00084E792E0CF91FF90EF90DF90CF900C943E
:1059B00016139F92AF92BF92CF92DF92EF92FF9217
:1059C0000F931F93CF93DF93F0907505E0907605CA
:1059D000D0907705C09078058091B5029091B6027D
:1059E000A091B702B091B8022AE0B695A795979515
:1059F00087952A95D1F780FF6BC0E091A502EE2331
:105A000009F4C4C08091C0029091C102E80FF92F3F
:105A1000F11D808190ED980F9A3040F08E3209F0A0
:105A2000A4C0818180538A3008F0ADC0F093BD02DC
:105A3000E093BC028091BC029091BD02FC010097F2
:105A400009F446C05F019190292D2F7D09F4A3C070
:105A500025E4921619F025E69212F4CFF501108292
:105A600070E060E08091BC029091BD020E9431AB79
:105A70008B01D82FC92FF501908220E030E0A901D9
:105A8000B8018D2F9C2F0E942CAA87FD0BC020E00F
:105A900030E040E251E4B8018D2F9C2F0E9429A8EC
:105AA0001816CCF46FE384E792E00E9416136BE4BF
:105AB00084E792E00E9416138DE996E00E94FF159C
:105AC00085E996E00E94FF1582E996E00E94FF15A5
:105AD0000F2D1E2DE6012F2D3E2D4D2D5C2DB801D5
